:020000040800F2
:10000000B00400200101000855140008271400085E
:1000100051140008F50E0008DF1E00080000000063
:10002000000000000000000000000000E9160008C9
:10003000F5120008000000002B150008D517000875
:100040001B0100081B0100081B0100081B01000820
:100050001B0100081B0100081B0100081B01000810
:100060001B0100081B0100081B0100081B01000800
:100070001B0100081B0100081B0100081B010008F0
:100080001B0100081B0100081B0100081B010008E0
:100090001B0100081B0100081B0100081B010008D0
:1000A0001B0100081B0100081B0100081B010008C0
:1000B000DD1800081B0100081B0100081B010008D7
:1000C0001B0100081B0100081B0100081B010008A0
:1000D0001B010008C51C00081B0100081B010008CB
:1000E0001B0100081B0100081B010008DFF80CD0F1
:1000F00000F0EAFB004800473D290008B00400205A
:100100000648804706480047FEE7FEE7FEE7FEE7B1
:10011000FEE7FEE7FEE7FEE7FEE7FEE7E51700087D
:10012000ED00000830B505460020034600E05B1CEA
:10013000934205D2EC5CC85C201A01D1002CF6D1A8
:1001400030BDF0B480EA0102D40F4200B2EB410F9F
:1001500002D20246084611464A0042D0C30DDDB223
:10016000C1F3C752AD1A202D35DAC1F3160141F49F
:10017000000204B15242C5F1200602FA06F12A41FA
:100180001044B3EBD05F23D0C4B1012DA0EBC3501A
:1001900009DCF0BC4FF0004202EAC352DBB200F5CA
:1001A000000000F0AAB9400000F1807000EBC350DD
:1001B000A0F1807040EAD170490009E0490841EAA5
:1001C000C071A0EBC35000F50000400800EBC35025
:1001D000F0BC00F089B96142012202EB4101001B31
:1001E000F6E7F0BC704781F00041AAE780F00040DC
:1001F000A7E780EA010210B502F00043400022D0D8
:100200004A001FD0010E01EB1261C0F35600C2F389
:10021000560240F4000042F40002A0FB0220000459
:100220007F39140400D0401C50EA124001D4400031
:10023000491EC2B20C0604EBD010401C4008802AB4
:1002400002D003E0002010BD20F00100002900DAF8
:100250000020184310BD30B480EA010202F00045CE
:1002600030F0004221F0004013D090B1C30DD40D06
:10027000C2F31601C0F31600E41A41F4000140F481
:1002800000027D34914201D3641C00E04900002C3F
:1002900002DA30BC002070474FF400000023914286
:1002A00001D3891A034340084FEA4101F7D151B104
:1002B000914202D14FF0004105E002D24FF001011E
:1002C00001E06FF0010103EBC450284430BC00F0A2
:1002D0000BB996230022114600F00FB900F000423E
:1002E00020F00040C10DC0F3160040F400007F294B
:1002F00001DA00207047962903DCC1F19601C8405D
:1003000001E096398840002AF4D04042704720F03E
:100310000040C10DC0F3160040F400007F2901DA4F
:1003200000207047962903DCC1F19601C840704750
:1003300096398840704700F0004230F000400AD003
:10034000C10D01F56071C0F3160042EA0151C20807
:1003500040071143704700200146704701F00043F9
:1003600030B421F0004150EA010206D00A0DA2F596
:100370006072C1F31301002A02DC30BC0020704718
:10038000440F44EAC104C100E01830BC00EBC25085
:1003900000F0AAB8002801DBC0F10040002901DB11
:1003A000C1F1004181427047002801DBC0F10040EB
:1003B000002901DBC1F100418842704730B50B468E
:1003C000014600202022012409E021FA02F59D4285
:1003D00005D303FA02F5491B04FA02F52844151E59
:1003E000A2F10102F1DC30BD2DE9F05F05460020ED
:1003F00092469B4688460646814640241BE0284696
:1004000041464746224600F080FA53465A46C01AF3
:10041000914110D311461846224600F067FA2D1A72
:1004200067EB01084F4622460120002100F05EFAEA
:1004300017EB00094E41201EA4F10104DFDC484601
:1004400031462A464346BDE8F09F00000FB4002322
:1004500000B589B00CA900910B996FF00042CB60F8
:100460001E4B06931E4B07930423CDE901321D4A10
:10047000089202466B46002000F002FB09B05DF8CE
:1004800014FB70B586B006464FF0FF300091CDE901
:100490000101002015460C4604903246694604A826
:1004A000FFF7D4FF02460498211825B108B1084689
:1004B00000E020462860049800280DD0002A02DDC4
:1004C0000098884208D0081B0094CDE90104324608
:1004D000694604A8FFF7BAFF06B070BDB90C000862
:1004E000D70C00084F0900080029A8BF7047401C1E
:1004F000490008BF20F00100704710B4B0FA80FC3A
:1005000000FA0CF050EA010404BF10BC704749B176
:10051000CCF1200421FA04F411FA0CF118BF0121E6
:1005200021430843A3EB0C01CB1D4FEA00614FEAC6
:10053000102042BF002010BC704700EBC350104495
:100540000029A4BF10BC7047401C490008BF20F020
:10055000010010BC70472DE9FE4F804681EA030080
:10056000C00F0C46009021F0004123F00045B8EB8D
:100570000200A94105D24046214690461C460B4642
:10058000024623F00040104347D0270DC7F30A006E
:10059000C3F30A510290401A019040286BDAC3F36A
:1005A000130040F4801B0098924620B10023D2EB48
:1005B000030A63EB0B0B01985946C0F14002504609
:1005C00000F094F906460D4650465946019A00F04F
:1005D000ACF910EB08006141002487EA115284EA6B
:1005E000E7731A4340D0009A62B3019A012A4FEA96
:1005F000075215DC001B61EB02014FF0004202EADA
:100600000752CDE90042001C41F5801132462B46CD
:1006100000F081FB03B0BDE8F08F40462146F9E7CA
:10062000001B61EB0201001C41F5801300185B41C7
:100630002018A2F5001747EB030140EAD570B61960
:100640006D4111E06D084FEA360645EAC0754FEA84
:100650000752001B61EB0201001C41F580114908A3
:100660004FEA30000019514132462B4603B0BDE835
:10067000F04F00F041BB0098012240000023D0EB76
:10068000020263EBE073009821464FEAE074B8EB96
:10069000000061EB0401E9E783F000435BE781F0D0
:1006A000004158E72DE9FE4F81EA030404F00044BD
:1006B00021F0004100944FF0000B23F0004350EA7A
:1006C00001045ED052EA03045BD0C3F30A54C1F3C1
:1006D0000A552C44A4F2F3340194A0FB0254C1F354
:1006E000130141F48011C3F3130343F4801301FB9E
:1006F000024400FB034E840A970A44EA815447EA05
:100700008357A4FB076802958D0A05FB07854FEA0E
:10071000932C04FB0C542705029D4FEA065847EA28
:100720001637B5EB08056EEB070C870E920E47EAFD
:10073000811742EA8312A7FB0201B6EB0B0164EBBF
:1007400000042B0D43EA0C335E1844EB1C50DA46D0
:100750005146E7FB0201C5F313044FEA0B3343EAAA
:1007600014534FEA0432019C43EA0603A4F10C043B
:100770000294009CCDE900B400F0CDFA03B0BDE8CE
:10078000F08F00200146F9E72DE9F04D81EA0304DE
:1007900004F0004B21F0004514464FF0000A23F00E
:1007A000004150EA050220D054EA01021DD0C5F3F1
:1007B0000A570246C5F31303C1F31300C1F30A56E7
:1007C00040F4801543F48013A7EB0608101BD646AF
:1007D00008F2FD3873EB050002D308F1010801E0CF
:1007E00092185B41B8F1000F03DA00200146BDE822
:1007F000F08D00204FF48011064684460EE0171B52
:1008000073EB050705D3121B63EB050306434CEAA4
:10081000010C49084FEA300092185B4150EA010789
:10082000EDD152EA030012D082EA040083EA050106
:10083000084305D0101BAB4106D20122002306E07D
:1008400000224FF0004302E06FF0010253101AEB58
:1008500006004CEB085110EB0A0041EB0B01BDE820
:10086000F04D00F049BAC1F30A52C1F3130140F24E
:10087000FF3341F480119A4202DA002001467047AA
:1008800040F233439A42A2F2334202DC524200F079
:100890003CB800F02BB8000030B5041E71F1000424
:1008A00004DB4FF00044404264EB0101141E73F17D
:1008B000000405DB1C464FF00043524263EB040387
:1008C000994208BF904230BD064C074D06E0E068F3
:1008D00040F0010394E8070098471034AC42F6D387
:1008E000FFF708FCD82A0008F82A0008202A04DBB1
:1008F000203A00FA02F1002070479140C2F1200333
:1009000020FA03F3194390407047202A04DB203A71
:1009100021FA02F00021704721FA02F3D040C2F11F
:1009200020029140084319467047202A06DBCB1766
:10093000203A41FA02F043EAE07306E041FA02F39A
:10094000D040C2F120029140084319467047C0B21E
:100950004FF4F05100F02EBA2DE9FF4F087883B024
:100960009946FF2805D0491C2D2804D000240020DA
:1009700008E000200BE00124F9E700EB800003EB26
:100980004000491C0B78FF2BF7D104B140420023F3
:100990000293147819461D462D2C01D02B2C04D11E
:1009A000521C2D2C13D000240294AA461478FF2C3C
:1009B0000FD00A25A3FB057801FB05814FF0000C41
:1009C00003FB0C11521CE3194AEB0101EEE7012471
:1009D000EAE7814453EA010002D019F5C87F06DA3C
:1009E00003980021C0E9001107B0BDE8F08F002591
:1009F000AE4E2F46DFF8B882184600F0EFF9CDE989
:100A00000001B9F1000002DAC9F1000400E0044677
:100A10000023A74A1AEB030B42EB045A12E0E0074B
:100A200007D02A46334638464146FFF73BFE074685
:100A300088462A46334610461946FFF733FE0546D8
:100A40000E466410002CEAD1DDE90001B9F1000F77
:100A50005A46534606DAFFF797FE3A464346FFF7F3
:100A600093FE05E0FFF71EFE3A464346FFF71AFEE7
:100A7000029A0AB181F00041039AC2E90001B3E78A
:100A80002DE9FF4F1F468DB0D7E901464FF0FF38E3
:100A90002E2045464FF000090B90B9696D1C0E9849
:100AA0008847396A824688470028F6D1BAF1FF3F65
:100AB0000AD024F4D064002E11DDBAF12B0F08D037
:100AC000BAF12D0F0BD102E0404611B08DE744F48E
:100AD0008064B9696D1C0E9888478246761E694607
:100AE000600501D52D2000E02B208DF8000001F1DC
:100AF000010B0DF1200809E0B9696D1C0E988847BB
:100B000082460F9844F40074761E0560002E02DDC4
:100B1000BAF1300FF0D00B998A453ED144F08004F1
:100B200006E00F99681CA9F1010944F400740860FB
:100B3000B9696D1C761E0E98884782463028F0D021
:100B40002BE00B998A4505D1200603D444F080049C
:100B5000761E18E0504601F0BBFA08B30DF1130100
:100B6000761E44F400748B4508D2AAF130000BF8CD
:100B7000010B200607D5A9F1010003E0200602D4ED
:100B800009F101008146A00502D50F99681C086093
:100B9000B9696D1C0E9888478246002ED1DC53E05F
:100BA000002E51DDBAF1650F02D0BAF1450F4BD1DD
:100BB000A00549D5B9696D1C24F44074761E0E98C1
:100BC00088478246002E0CDD2B2804D0BAF12D0F69
:100BD00007D144F48074B9696D1C0E988847824629
:100BE000761EE00501D52D2100E02B2108F8011B20
:100BF000CDF82C8021E00DF12901761E44F400741B
:100C000088450CD2AAF1300010F0FF0088F80000EF
:100C100002D10B99884509D908F1010806E0E005E1
:100C200001D5244801E042F20F708146B9696D1C7C
:100C30000E98884782460F980560002E04DD5046C6
:100C400001F046FA0028D6D1F9690E988847FF20AE
:100C50008BF8000088F800000020069007904B46B3
:100C60006A4608A906A8FFF777FEA00502D46FF030
:100C700001002AE714F0240F0AD0E00714D1DDE9BF
:100C800006123868031D3B600068C0E900120BE0E3
:100C9000DDE90601FFF762FB0146E00704D1386891
:100CA000021D3A600068016028460EE7000014400B
:100CB0000000F03FF1D8FFFF426842B1016811F82F
:100CC000013B23B1521EC0E90012184670470121B2
:100CD000C160881E704742685AB1C368016843B951
:100CE00083688B4205D0491E521CC0E900120020C7
:100CF00070474FF0FF30704710B5141E73F10004B9
:100D000008DA401C41F1000192185B411A4301D1FD
:100D100020F0010010BD2DE9F04D92469B4611B127
:100D2000B1FA81F202E0B0FA80F220329046FFF789
:100D3000DDFD04460F4640EA0A0041EA0B01534636
:100D40005A46084313D0114653EA010019D0C8F19E
:100D500040025046FFF7D9FD05460E46504659461B
:100D60004246FFF7C3FD084305D0012004E02046BA
:100D70003946BDE8F08D0020054346EAE0762C4375
:100D800037430A986305E40AA0EB08000022FD0A35
:100D900044EA47540A3002D500200146E9E701053C
:100DA00010196941DDE9084500196941BDE8F04DB8
:100DB000A2E700007F2801D9002208E0064A02EBE2
:100DC0005002C007127800D1120902F00F02012070
:100DD0009040084070470000982A00080EB540F285
:100DE000334202920022CDE900221346FFF793FF1F
:100DF00003B000BD1CB50121082000F0A7FBC020F6
:100E0000ADF8040010208DF8070003208DF80600CF
:100E100001A9144800F06FFA00F012FC00F024FC65
:100E20000020009003E000BF0098401C00900E4995
:100E300000988842F7D301F044FD462001F059FDA7
:100E4000012001F056FD01F048FD0020009003E074
:100E500000BF0098401C0090044900988842F7D3D6
:100E60001CBD0000000C0140801A06008038010003
:100E70007CB501F026FD462001F03BFD08B11A4883
:100E80007CBD202001F035FD01F027FD0020009001
:100E900003E000BF0098401C00901449009888426D
:100EA000F7D301F00EFD472001F023FD10B14FF004
:100EB0004040E5E7012001F0DFFC8DF80400002050
:100EC00001F0DAFC8DF8050001F007FD9DF8050042
:100ED0009DF8041040EA01242046FFF7FAF9054680
:100EE0000349FFF7B8F9CBE7000080BF00F9150010
:100EF0009A99993F00BFFEE710B50C490C4800686D
:100F0000FFF752FA08D30B480078FFF7E2F90446DE
:100F10000949FFF749FA04D20221084800F081FA92
:100F200003E00221054800F07AFA10BD00004842B3
:100F3000280000202C0000200000B442000C0140DA
:100F400070B500212B480068FFF724FA05D0002176
:100F500029480068FFF71EFA00D170BD27480168D4
:100F600025480068FFF716FA07D00020244988605A
:100F7000C86021480068214908601E4801681E4871
:100F80000068FFF730F905464FF07C512846FFF71F
:100F90000BFA14D21748026817480168184800F085
:100FA00093FA06463046FFF7B2F9C4B2204600F085
:100FB0003DFA4FF48061134800F031FA18E012490D
:100FC0002846FFF7E7F90BD2002000F02FFA0020A7
:100FD0000B4988604FF480610A4800F022FA07E06C
:100FE000002000F023FA4FF48061064800F017FA61
:100FF00000BFB2E7280000205C0000205000002065
:1010000038000020000C0140000080BF08B501211D
:10101000082000F09BFA40F20340ADF800001020D9
:101020008DF8030002208DF802006946054800F0A3
:1010300062F940F20341034800F0F1F9002000F0AA
:10104000F5F908BD000C01402DE9F047344800785F
:1010500028B1002133480068FFF79CF901D1BDE8B1
:10106000F0872F480078FFF734F980462D48016853
:101070004046FFF7BBF807464FF080413846FFF780
:1010800089F90ED82848007830B10121274800F0AE
:10109000C6F90020244908702548006825490860E1
:1010A000DDE725493846FFF7A4F8044623492046E2
:1010B000FFF77AF900D2214C21462148FFF799F831
:1010C00081462049FFF7C7F88046FFF720F905461B
:1010D0001748006817490968461A42F2107086429C
:1010E00004D313480068134908600026AE420AD2B0
:1010F0000D48007888B901210C4800F092F90120D0
:101100000949087009E00848007830B10121074812
:1011100000F085F900200449087000BF9FE7000037
:101120002C0000206000002058000020000C01402E
:101130003400002054000020000040400000B44271
:1011400000401C460000C84210B50121042000F0F8
:10115000FDF900F0BDF80221014800F062F910BD70
:10116000000801402DE9FE4306460F46002001908D
:10117000029000F0ADF802214A4800F050F900203A
:10118000009003E000BF0098401C00904649009882
:101190008842F7D30221434800F043F91E2001F0B2
:1011A00056FB00F083F84CF2503504E0681E051E33
:1011B00001D1BDE8FE8302213A4800F027F9012859
:1011C000F4D04CF2503503E0681E051E00D1F0E764
:1011D0000221344800F01AF90028F5D04CF25035BD
:1011E00003E0681E051E00D1E3E702212D4800F050
:1011F0000DF90128F5D0002437E04FF0000830E069
:101200004CF2503503E0681E051E00D1D1E70221E3
:10121000244800F0FBF80028F5D0282001F017FB47
:1012200001A8005D4006000E01A9085502211D48D5
:1012300000F0ECF8012812D101A8005D40F0010097
:1012400001A908554CF2503503E0681E051E00D177
:10125000AFE70221134800F0D9F80128F5D008F1D2
:101260000108B8F1080FCBDB641C052CC5DB9DF829
:1012700004009DF8051008449DF8061008449DF8E8
:1012800007100844C0B29DF80810884201D0002021
:101290008FE79DF8040038709DF80600307001203B
:1012A00087E70000000801404019010008B502204E
:1012B000ADF8000048208DF8030003208DF80200EF
:1012C0006946024800F017F808BD00000008014018
:1012D00008B50220ADF8000010208DF803000320AF
:1012E0008DF802006946024800F005F808BD0000CC
:1012F0000008014070472DE9F04102460025002614
:10130000002000230024002791F803C00CF00F05F3
:1013100091F803C00CF0100CBCF1000F03D091F851
:1013200002C04CEA050591F800C0BCF1000F31D0B5
:10133000146800202BE04FF0010C0CFA00F3B1F818
:1013400000C00CEA03069E4220D183004FF00F0C30
:101350000CFA03F7BC4305FA03FC4CEA040491F8C9
:1013600003C0BCF1280F06D14FF0010C0CFA00FCB1
:10137000C2F814C00AE091F803C0BCF1480F05D1CF
:101380004FF0010C0CFA00FCC2F810C0401C0828F9
:10139000D1D31460B1F800C0BCF1FF0F34DD546844
:1013A00000202EE000F1080C4FF0010808FA0CF3C1
:1013B000B1F800C00CEA03069E4221D183004FF031
:1013C0000F0C0CFA03F7BC4305FA03FC4CEA0404C7
:1013D00091F803C0BCF1280F05D100F1080C08FA00
:1013E0000CF8C2F8148091F803C0BCF1480F07D183
:1013F00000F1080C4FF0010808FA0CF8C2F8108050
:10140000401C0828CED35460BDE8F081024600207D
:1014100093680B400BB1012000E000207047416150
:1014200070470161704700BFFEE7000010B5044639
:10143000642C00DD6424C4F16400C4B204EB8400B5
:101440004100024800F02FFB10BD0000002C0140BD
:1014500000BFFEE77047000070B5002100230F2297
:10146000C47804B3154C246804F4E064C4F5E06463
:10147000210AC1F10403CA40447804FA03F18478D4
:101480001440214309010E4C0678A155047804F05C
:101490001F050124AC4005786D11AD0005F1E02574
:1014A000C5F8004109E0047804F01F050124AC40B0
:1014B000044D0678761145F8264070BD0CED00E02D
:1014C00000E400E080E100E02DE9F05F04460E4614
:1014D000174639463046FEF786FE05462846A1687F
:1014E000FEF781FE8146A56049466068FEF781FEF1
:1014F000824629462068FEF77CFE83465146FEF769
:1015000020FE804640462169FEF744FF01D2D4F810
:10151000108040466169FEF747FF01D2D4F814807D
:10152000C4F80C804046BDE8F09F704729B1064AD8
:10153000D2690243044BDA6104E0034AD269824370
:10154000014BDA61704700000010024029B1064AE1
:1015500092690243044B9A6104E0034A9269824310
:10156000014B9A61704700000010024030B5002125
:101570000022002400232D4D6D6805F00C0121B1DF
:10158000042905D0082923D105E0294D056022E072
:10159000274D05601FE0254D6D6805F47012234D41
:1015A0006D6805F48034022505EB92421CB9214D8B
:1015B000554305600BE01D4D6D6805F400351DB108
:1015C0001C4D5543056002E0194D5543056002E08E
:1015D000174D056000BF00BF144D6D6805F0F001A8
:1015E0000909154D6B5C0568DD4045600F4D6D6860
:1015F00005F4E061090A104D6B5C4568DD408560CB
:101600000A4D6D6805F46051C90A0B4D6B5C456865
:10161000DD40C560054D6D6805F44041890B074DFF
:101620006B5CC568B5FBF3F5056130BD0010024089
:1016300000127A0000093D00140000202400002060
:1016400010B540210248FFF7ECFE01F009F910BD8A
:10165000000C014010B540210248FFF7E0FE01F008
:10166000FFF810BD000C014010B580210248FFF7C3
:10167000D8FE01F0F5F810BD000C014008B580203F
:10168000ADF8000048208DF8030003208DF802001B
:1016900069460248FFF72FFE08BD0000000C01401C
:1016A00010B580210248FFF7BAFE01F0D9F810BD4D
:1016B000000C014008B58020ADF8000010208DF826
:1016C000030003208DF8020069460248FFF713FE6D
:1016D00008BD0000000C014010B580210148FFF753
:1016E00095FE10BD000C0140704710B500F002F8E7
:1016F00010BD00000CB50020019000903348006838
:1017000040F480303149086000BF3048006800F480
:10171000003000900198401C0190009818B9019881
:10172000B0F5A06FF1D12948006800F4003010B185
:101730000120009001E0002000900098012843D192
:101740002348006840F010002149086008460068FE
:1017500020F0030008600846006840F002000860BE
:101760001A48406819494860084640684860084679
:10177000406840F4806048600846406820F47C106F
:1017800048600846406840F4E81048600846006831
:1017900040F08070086000BF0C48006800F00070E6
:1017A0000028F9D00948406820F003000749486044
:1017B0000846406840F00200486000BF03484068A7
:1017C00000F00C000828F9D10CBD00000010024008
:1017D0000020024002480068401C01490860704730
:1017E0003400002010B51348006840F00100114992
:1017F000086008464068104908400E49486008469D
:1018000000680E4908400B4908600846006820F44B
:10181000802008600846406820F4FE0048604FF4CD
:101820001F008860FFF761FF4FF000600449086007
:1018300010BD0000001002400000FFF8FFFFF6FEA0
:1018400008ED00E000B589B0012140F60500FFF782
:101850007DFE4FF48070ADF8200018208DF8230035
:1018600003208DF8220008A91A48FFF744FD4720FD
:10187000ADF8140040F2E730ADF818000020ADF8E4
:101880001A00ADF816008DF81C0005A9124800F0EA
:101890000DF96020ADF804000120ADF8060000202D
:1018A000ADF80A00ADF80C0001A90B4800F0A6F84D
:1018B0000821094800F0EEF80121074800F059F826
:1018C0000121054800F070F80121034800F060F89C
:1018D00009B000BD00080140002C014010B50121F5
:1018E000880700F070F880B10121880700F04DF8FA
:1018F00006480078401CC0B2044908703C2804DB4C
:101900000020087001200249087010BD5A00002014
:10191000590000201FB501210846FFF707FE41F6D8
:101920001F40ADF8040042F20F70ADF8080000202F
:10193000ADF80A00ADF8060001A94FF0804000F0B4
:10194000B5F801221146900700F04EF801218807F2
:1019500000F01EF81C208DF8000000208DF801001A
:101960008DF8020001208DF803006846FFF774FD32
:101970001FBD21B1028842F08002028004E002888B
:101980004FF67F731A4002807047CA430282704745
:1019900021B1028842F00102028004E002884FF681
:1019A000FE731A400280704731B1B0F8442042F40F
:1019B0000042A0F8442005E0B0F84420C2F30E0233
:1019C000A0F84420704730B50246002000230024D0
:1019D000158A05EA0103958905EA010413B10CB1E2
:1019E000012000E0002030BD1AB183890B438381C0
:1019F00002E083898B4383817047000070B5002427
:101A000000220023058C4FF6FE7635400584028CBB
:101A10008388048B4FF68F752C40B51E2C400D88A3
:101A20002C43751E2A400D892A434D882A43144DA4
:101A3000A8420BD0134DA84208D0134DA84205D0A0
:101A4000124DA84202D0124DA84213D14FF6F7759D
:101A50002A404D892A434FF6FB752A408D882A4338
:101A60004FF6FF652B404FF6FF552B408D892B43DA
:101A7000CD892B4383800483CD888586028470BD05
:101A8000002C01400034014000400140004401406E
:101A9000004801400A460021018B4FF6F7731940B8
:101AA000114301837047818670470000002202883D
:101AB0001D4B98420ED01D4B98420BD0B0F1804F79
:101AC00008D01B4B984205D01A4B984202D01A4BB3
:101AD000984204D14FF68F731A404B881A43174B24
:101AE000984207D0164B984204D04FF6FF431A4055
:101AF000CB881A4302808B8883850B8803850A4B29
:101B000098420BD0094B984208D00E4B984205D012
:101B10000D4B984202D00D4B984201D10B7A0386AF
:101B20000123838270470000002C014000340140F3
:101B30000004004000080040000C0040001000407D
:101B400000140040004001400044014000480140B2
:101B500000B587B0012144F20400FFF7F7FC4FF411
:101B60000070ADF8180018208DF81B0003208DF8C8
:101B70001A0006A91D48FFF7BEFB4FF48060ADF8C0
:101B8000180004208DF81B0006A91848FFF7B3FBC6
:101B90004FF4E13002900020ADF80C00ADF80E00DB
:101BA000ADF81000ADF814000C20ADF8120002A939
:101BB0000F4800F01FF9012240F225510C4800F0B7
:101BC000F4F825208DF8040001208DF80500002090
:101BD0008DF8060001208DF8070001A8FFF73CFCF6
:101BE0000121034800F09EF807B000BD0008014045
:101BF000003801402DE9F0411C4C09221CA120466F
:101C0000FEF790FAA0B904F1090000F00BFE0646B9
:101C1000FEF7A4FB054600212846FEF7C5FB06D2C9
:101C200016492846FEF7B6FB01D8154805601AE0AC
:101C30000A2214A12046FEF775FAA0B904F10A00A1
:101C400000F0F0FD0646FEF789FB05460021284618
:101C5000FEF7AAFB06D80E492846FEF79BFB01D8E3
:101C60000C48056000BFBDE8F08100006C0000205A
:101C7000434D443A686561742C0000000000A042A6
:101C80005C000020434D443A68756D69642C000087
:101C90000000C8426000002010B504460BE000BF01
:101CA0008021074800F04AF80028F9D014F8011BF9
:101CB000034800F010F920780028F0D110BD000092
:101CC0000038014010B540F22551124800F043F8A9
:101CD000F8B1104800F0FAF8C4B20A2C0BD1002178
:101CE0000D480E4A1278815400200C4908700120DA
:101CF0000B4908700CE00D2C0AD0084800783F28EA
:101D000006DA06490878411C044A117002490C544D
:101D100000BF10BD003801406C00002064000020AE
:101D20006500002021B1828942F40052828104E0E2
:101D300082894DF6FF731A40828170470246002067
:101D4000B1F5007F00D100BF13880B400BB101201B
:101D500000E00020704770B50246002400230025F3
:101D6000002040F66A16B14200D100BFC1F342150F
:101D700001F01F03012606FA03F3012D02D1968913
:101D8000334006E0022D02D1168A334001E0968AE4
:101D900033400C12012606FA04F41688344013B1BD
:101DA0000CB1012000E0002070BDF0B50346002416
:101DB00000260025002040F66A17B94200D100BF76
:101DC0001846C1F3421401F01F06012707FA06F571
:101DD000012C01D10C3004E0022C01D1103000E0C4
:101DE00014301AB107682F43076002E00768AF4359
:101DF0000760F0BD2DE9F04786B005460E46002489
:101E0000A24600BFA1460027B08900B100BF2F46FF
:101E10002C8A4CF6FF700440F08804432C82AC8975
:101E20004EF6F3100440B0883189084371890843A5
:101E30000443AC81AC8A4FF6FF400440B0890443B0
:101E4000AC8201A8FFF792FB1F48874202D1DDF860
:101E500010A001E0DDF80CA0A88900F4004040B11A
:101E60000AEBCA0000EB0A1031684900B0FBF1F838
:101E700007E00AEBCA0000EB0A1031688900B0FBEA
:101E8000F1F86420B8FBF0F004012009642101FBA3
:101E90001089A88900F4004040B1322000EBC9004D
:101EA000B0FBF1F000F00700044308E0322000EB43
:101EB00009106421B0FBF1F000F00F0004432C8105
:101EC00006B0BDE8F0870000003801400146888870
:101ED000C0F308007047C1F308028280704700BF5A
:101EE000FEE700000FB41CB50246002007AC002935
:101EF0000BD0491ECDE90021054B6A4621460698C4
:101F000000F0EEF8009A002111701CBC5DF814FB83
:101F10000F28000801480068704700006800002092
:101F200002E008C8121F08C1002AFAD170477047A2
:101F3000002001E001C1121F002AFBD17047000000
:101F40000149086070470000680000202DE9FF5F2C
:101F500082B00021DDE90430020DDDF840B003431A
:101F600018D044F61050A2F2FF32424315141198D3
:101F700001281FD0A5EB0B00401C5FEA000A4FF0C0
:101F800000064E4FDFF83891B046504615D5CAF1DD
:101F9000000413E0119801244AA3012801D16FEA3B
:101FA0000B010298119AC0E90031C0E9024206B063
:101FB000BDE8F09FCBF10000DFE704460021404A76
:101FC000491842EB0450CDE9001012E0E00707D0B9
:101FD00032463B4640464946FEF764FB804689460A
:101FE00032463B4610461946FEF75CFB06460F4656
:101FF0006410002CEAD1DDE90401DDE90023BAF127
:10200000000F06DAFEF74EFB42464B46FEF74AFB50
:1020100005E0FEF7B9FB42464B46FEF7B5FB04462A
:102020000E460022284BFEF737FC03D84FF0FF3056
:10203000014607E00022254B20463146FEF78BFA89
:10204000FEF711FC102409E0002C0ADB0A22002311
:10205000FEF7CAF9039B30321A55641E50EA01029A
:10206000F2D1641C039AC4F111031444119A012A99
:1020700003D0012208430DD10AE0084304D0002018
:102080004FF0110B119072E7A3EB0B056D1E0DE0E5
:102090005B4504DD4FF0000205F1010504E003DAC1
:1020A0004FF00002A5F10105002AECD00298119929
:1020B000C0E90231C0E9004579E7000000001440A2
:1020C0000000F03F300000000000F0430000E03F5F
:1020D00030380A2801D201207047002070470000E4
:1020E0002DE9FF4F95B09B468946064600250FE235
:1020F000252877D100242746F84A0121059400E0DD
:10210000044316F8013F203B01FA03F01042F7D1D7
:1021100030782A2811D06FF02F033078A0F13002E8
:10212000092A16D8059A44F0020402EB820203EB56
:1021300042021044761C0590EFE759F8042B0592F3
:10214000002A03DA504244F40054059044F002049B
:10215000761C30782E2816D116F8010F44F00404AE
:102160002A280DD06FF02F023078A0F13003092B10
:1021700009D807EB870302EB4303C718761CF3E784
:1021800059F8047B761C30786C280FD006DC4C287C
:1021900017D068280DD06A2814D104E0742810D014
:1021A0007A280FD10DE044F400140AE044F48014BE
:1021B00001E044F440147278824202D104F58014A4
:1021C000761C761C307866280BD013DC582877D024
:1021D00009DC002875D04528F6D04628F4D04728D9
:1021E0001AD19DE118E0632835D0642879D065289C
:1021F00012D195E1702873D008DC6728F1D06928E6
:102200006FD06E280DD06F2806D1B5E073282CD082
:10221000752875D0782874D05A46179990476D1C48
:1022200075E1C4F30250022809D003280DD0D9F873
:10223000001004280DD00D6009F1040967E1D9F8F8
:102240000010EA17C1E90052F6E7D9F800100D8036
:10225000F2E70D70F0E719F8041B8DF8001000206C
:102260008DF80100EA46012003E059F804AB4FF075
:10227000FF3061074FF0000102D40DE008F10101C9
:102280008846B9420FDA8045F8DB1AF808100029B1
:10229000F4D108E008F1010188468142FADB1AF81E
:1022A00008100029F6D105985B46A0EB08072146E7
:1022B0003846179A00F094FA284400EB080507E026
:1022C0004DE029E10DE01AF8010B5A4617999047A5
:1022D000B8F10108F7D25B4621463846179A13E158
:1022E00042E00A220092C4F302524FF0000A022A8E
:1022F00008D059F804CB032A4FEAEC710AD00DE05C
:1023000029E02AE009F1070121F00702F2E802C101
:10231000914609E00FFA8CFC4FEAEC71042A03D1D4
:102320004FFA8CFC4FEAEC71002907DA0A460021CB
:10233000DCF1000C61EB02012D2202E0220504D544
:102340002B228DF80420012203E0E20701D0202295
:10235000F7E7904659E00A2102E010220DE0102133
:102360004FF0000A00910BE010224FF0000A44F0F9
:1023700004040827009203E008224FF0000A0092AC
:10238000C4F30252022A05D059F804CB0021032AD3
:1023900008D009E009F1070121F00702F2E802C1C3
:1023A000914605E01FFA8CFC042A01D10CF0FF0CC9
:1023B0004FF00008220728D5702806D0009B83F034
:1023C000100353EA0A0305D00EE040228DF80420E2
:1023D000012208E05CEA010206D030228DF80420D8
:1023E0008DF8050002229046009B83F0080353EA13
:1023F0000A030AD15CEA010201D1620705D5302245
:102400008DF804204FF001087F1E582804D034A016
:1024100003900EA802900DE036A0F9E753466046FF
:10242000009AFDF7E1FF84460398825C0298401E03
:10243000029002705CEA0100F0D1029806A9081A25
:1024400000F1200A600702D524F4803400E001275F
:10245000574502DDA7EB0A0000E0002000EB0A016F
:10246000009005984144401A0590E00306D45B466D
:102470002146179A059800F0B3F90544002706E0B5
:1024800001A85A46C05D179990476D1C7F1C4745AF
:10249000F6DBE0030CD55B462146179A059800F061
:1024A0009FF9054404E030205A46179990476D1C67
:1024B0000099481E00900029F5DC08E00298029976
:1024C0005A460078491C0291179990476D1CBAF141
:1024D0000001AAF1010AF1DC65E100000928010010
:1024E000303132333435363738396162636465668A
:1024F000000000003031323334353637383941424C
:10250000434445460000000000F058F90544761C9D
:10251000307800287FF4ECAD19B02846BDE8F08F84
:10252000620700D4062709F1070222F0070CFCE835
:102530000223E14603F000485FEA080C02D00FF2E4
:10254000702C0DE05FEA045C02D50FF2682C07E006
:102550005FEAC47C02D00FF2602C01E0AFF2700C95
:102560004FF0FF3823F00043CDF850C065280CD061
:1025700006DC452809D046281DD047283DD13DE03E
:10258000662818D067287ED138E00021112F01DBA2
:10259000112000E0781CCDE9000106A90EA8FFF784
:1025A000D5FCDDE90F010E9A03910021009207F19D
:1025B000010A04914DE04FF000400097CDE9011071
:1025C00006A90EA8FFF7C2FCDDE90F0203920E9BDD
:1025D00011990022DDF80CA00093049211B9791C26
:1025E00000EB010AB7EB0A0004D4C0F1FF3007F199
:1025F000010A0490AAEB0700019044E0012F00DAE1
:1026000001270021112F01DD112000E03846CDE91E
:10261000000106A90EA8FFF799FCDDE90F010E9A4B
:102620000391002104910092BA4621070CD403992A
:10263000514500DA8A46BAF1010F05DD009AAAF188
:102640000101515C302908D0B84202DA10F1040FC0
:1026500006DA0121CDE9011015E0AAF10101E9E74F
:10266000002805DC049901440491AAEB000102E072
:10267000411C514500DD8A460499401A401C0190D6
:102680004FF000400290200704D40198504501DB30
:10269000CDF8048000208DF84F0002980DF14F070F
:1026A000B0F1004F25D02B200E9002984FF0020879
:1026B00000280CDA404202902D200E9007E00A21FB
:1026C0000298FDF77BFE3031029007F8011DB8F14A
:1026D0000001A8F10108F2DC02980028EFD1791E70
:1026E0000E980870307800F0200040F0450007F8A0
:1026F000020D12A8C01B00F107081498007800B161
:10270000012000EB0A01019801EBE07105984144BA
:10271000401A401E0590E00306D45B462146179AF6
:10272000059800F05DF805441498007818B15A46F1
:10273000179990476D1CE00324D55B462146179AF4
:10274000059800F04DF805441CE00498002807DBCC
:10275000DDE90301884203DD0098405C179901E040
:10276000179930205A469047049805F10105401CFE
:1027700004900198401E019004D12E205A461799CA
:1027800090476D1CBAF10001AAF1010ADDDC05E0F9
:1027900017F8010B5A46179990476D1CB8F10001C4
:1027A000A8F10108F4DC5B462146179A0598ABE6D0
:1027B0002D0000002B000000200000002DE9F0415A
:1027C000044600251E461746880404D405E0394611
:1027D0002020B0476D1C641EF9D52846BDE8F08165
:1027E0002DE9F041044600251E469046C80301D558
:1027F000302700E02027880404D505E0414638460C
:10280000B0476D1C641EF9D52846BDE8F0814A68C2
:10281000002A06D00A68531C0B6010704868401EDE
:102820004860704730B583B00446FFF773FB054638
:102830000020CDE90000024621466846FDF721FE52
:102840002846FFF77DFBDDE9000103B030BD00EB5A
:10285000C00000E000BF011EA0F10100FAD17047E6
:1028600008B50020009003E000BF0098401C0090D5
:1028700000984828F8D308BD70B505460026FEF735
:10288000FDFE07240BE0FEF7E5FEFEF7D9FEFEF79E
:1028900023FF18B10120A0403043C6B2641E002CB3
:1028A000F1DAFEF7D7FEFEF705FF15B1FEF7F8FEE9
:1028B00001E0FEF7D9FEFEF7C3FEFEF7CBFE304681
:1028C00070BD10B5FEF7F6FEFEF7CEFEFEF7B8FEC1
:1028D000FEF7E6FEFEF7BEFE10BD10B5FEF7EAFEFF
:1028E000FEF7B8FEFEF7DCFEFEF7AAFEFEF7BCFE22
:1028F00010BD70B50546FEF7DDFE07240DE0FEF7BE
:10290000A9FE0120A040284010B1FEF7ADFE01E075
:10291000FEF7C6FEFEF794FE641E002CEFDAFEF70B
:1029200099FEFEF7ABFEFEF78BFEFEF7D5FE0646E0
:10293000FEF790FEFEF7BEFE304670BD96B000205A
:1029400005900490464800684FF47A72B0FBF2F1AB
:10295000B1F1807F00D31DE021F07F40401E4FF099
:10296000E022506150170F22002807DA13071D0ECE
:102970003C4B00F00F04241F1D5503E013071C0EF1
:10298000394B1C5400BF00204FF0E022906107201B
:10299000106100BFFFF7DCF8FEF72CFAFEF7D4FB5E
:1029A000FEF7B8FFFEF74EFFFEF730FB0020039066
:1029B0000DE00020029003E000BF0298401C02904E
:1029C0002A4902988842F7D30398401C0390039841
:1029D000B0F5FA6FEDD30120254908703FE0244897
:1029E000007870B300202249087004A905A8FEF7FA
:1029F000B9FB48B19DF81400FDF76BFC1D49086058
:102A00009DF810001C490870FEF732FA1B49086057
:102A100008460068FDF78FFC04460D46154800681F
:102A2000FDF75CFC06461448CDE9024500783346C4
:102A300013A24021009006A8FFF754FA06A8FFF75A
:102A40002BF91448007830B1002012490870FFF7C4
:102A5000D1F8FEF775FAFEF7F7FAFEF74DFABEE782
:102A60000000002018ED00E000E400E04019010043
:102A700059000020280000202C00002030000020F9
:102A800053454E534F523A25642C25642C252E3144
:102A9000660A000065000020DDDDDDDDDCBBBBDD9E
:102AA000DDDDDDDDDDDDDDDD9888888888888888EE
:102AB000777777777788888885555556666666660E
:102AC00066666666666888888333333222222222ED
:102AD000222222222228888DF82A000800000020C5
:102AE0006C000000201F0008642B00086C00002010
:102AF00044040000301F000800A24A040000000047
:102B0000000000000102030406070809000000009D
:102B1000010203040102030406070809020406086F
:102B200000000000000000000000000000000000A5
:102B3000000000400000003F000000000000000016
:102B4000000000000000C84200C079C4000000007E
:102B50000000000000000000000000000000000075
:042B60000000000071
:04000005080000ED02
:00000001FF
