:020000040800F2
:10000000B004002001010008F51500080F140008D5
:10001000F11500086D0F0008032000080000000023
:100020000000000000000000000000000D180008A3
:10003000DD12000800000000F5160008F91800089D
:100040001B0100081B0100081B0100081B01000820
:100050001B0100081B0100081B0100081B01000810
:100060001B0100081B0100081B0100081B01000800
:100070001B0100081B0100081B0100081B010008F0
:100080001B0100081B0100081B0100081B010008E0
:100090001B0100081B0100081B0100081B010008D0
:1000A0001B0100081B0100081B0100081B010008C0
:1000B000011A00081B0100081B0100081B010008B1
:1000C0001B0100081B0100081B0100081B010008A0
:1000D0001B010008E91D00081B0100081B010008A6
:1000E0001B0100081B0100081B010008DFF80CD0F1
:1000F00000F0EAFB0048004785290008B004002012
:100100000648804706480047FEE7FEE7FEE7FEE7B1
:10011000FEE7FEE7FEE7FEE7FEE7FEE70919000857
:10012000ED00000830B505460020034600E05B1CEA
:10013000934205D2EC5CC85C201A01D1002CF6D1A8
:1001400030BDF0B480EA0102D40F4200B2EB410F9F
:1001500002D20246084611464A0042D0C30DDDB223
:10016000C1F3C752AD1A202D35DAC1F3160141F49F
:10017000000204B15242C5F1200602FA06F12A41FA
:100180001044B3EBD05F23D0C4B1012DA0EBC3501A
:1001900009DCF0BC4FF0004202EAC352DBB200F5CA
:1001A000000000F0AAB9400000F1807000EBC350DD
:1001B000A0F1807040EAD170490009E0490841EAA5
:1001C000C071A0EBC35000F50000400800EBC35025
:1001D000F0BC00F089B96142012202EB4101001B31
:1001E000F6E7F0BC704781F00041AAE780F00040DC
:1001F000A7E780EA010210B502F00043400022D0D8
:100200004A001FD0010E01EB1261C0F35600C2F389
:10021000560240F4000042F40002A0FB0220000459
:100220007F39140400D0401C50EA124001D4400031
:10023000491EC2B20C0604EBD010401C4008802AB4
:1002400002D003E0002010BD20F00100002900DAF8
:100250000020184310BD30B480EA010202F00045CE
:1002600030F0004221F0004013D090B1C30DD40D06
:10027000C2F31601C0F31600E41A41F4000140F481
:1002800000027D34914201D3641C00E04900002C3F
:1002900002DA30BC002070474FF400000023914286
:1002A00001D3891A034340084FEA4101F7D151B104
:1002B000914202D14FF0004105E002D24FF001011E
:1002C00001E06FF0010103EBC450284430BC00F0A2
:1002D0000BB996230022114600F00FB900F000423E
:1002E00020F00040C10DC0F3160040F400007F294B
:1002F00001DA00207047962903DCC1F19601C8405D
:1003000001E096398840002AF4D04042704720F03E
:100310000040C10DC0F3160040F400007F2901DA4F
:1003200000207047962903DCC1F19601C840704750
:1003300096398840704700F0004230F000400AD003
:10034000C10D01F56071C0F3160042EA0151C20807
:1003500040071143704700200146704701F00043F9
:1003600030B421F0004150EA010206D00A0DA2F596
:100370006072C1F31301002A02DC30BC0020704718
:10038000440F44EAC104C100E01830BC00EBC25085
:1003900000F0AAB8002801DBC0F10040002901DB11
:1003A000C1F1004181427047002801DBC0F10040EB
:1003B000002901DBC1F100418842704730B50B468E
:1003C000014600202022012409E021FA02F59D4285
:1003D00005D303FA02F5491B04FA02F52844151E59
:1003E000A2F10102F1DC30BD2DE9F05F05460020ED
:1003F00092469B4688460646814640241BE0284696
:1004000041464746224600F080FA53465A46C01AF3
:10041000914110D311461846224600F067FA2D1A72
:1004200067EB01084F4622460120002100F05EFAEA
:1004300017EB00094E41201EA4F10104DFDC484601
:1004400031462A464346BDE8F09F00000FB4002322
:1004500000B589B00CA900910B996FF00042CB60F8
:100460001E4B06931E4B07930423CDE901321D4A10
:10047000089202466B46002000F002FB09B05DF8CE
:1004800014FB70B586B006464FF0FF300091CDE901
:100490000101002015460C4604903246694604A826
:1004A000FFF7D4FF02460498211825B108B1084689
:1004B00000E020462860049800280DD0002A02DDC4
:1004C0000098884208D0081B0094CDE90104324608
:1004D000694604A8FFF7BAFF06B070BDB90C000862
:1004E000D70C00084F0900080029A8BF7047401C1E
:1004F000490008BF20F00100704710B4B0FA80FC3A
:1005000000FA0CF050EA010404BF10BC704749B176
:10051000CCF1200421FA04F411FA0CF118BF0121E6
:1005200021430843A3EB0C01CB1D4FEA00614FEAC6
:10053000102042BF002010BC704700EBC350104495
:100540000029A4BF10BC7047401C490008BF20F020
:10055000010010BC70472DE9FE4F804681EA030080
:10056000C00F0C46009021F0004123F00045B8EB8D
:100570000200A94105D24046214690461C460B4642
:10058000024623F00040104347D0270DC7F30A006E
:10059000C3F30A510290401A019040286BDAC3F36A
:1005A000130040F4801B0098924620B10023D2EB48
:1005B000030A63EB0B0B01985946C0F14002504609
:1005C00000F094F906460D4650465946019A00F04F
:1005D000ACF910EB08006141002487EA115284EA6B
:1005E000E7731A4340D0009A62B3019A012A4FEA96
:1005F000075215DC001B61EB02014FF0004202EADA
:100600000752CDE90042001C41F5801132462B46CD
:1006100000F081FB03B0BDE8F08F40462146F9E7CA
:10062000001B61EB0201001C41F5801300185B41C7
:100630002018A2F5001747EB030140EAD570B61960
:100640006D4111E06D084FEA360645EAC0754FEA84
:100650000752001B61EB0201001C41F580114908A3
:100660004FEA30000019514132462B4603B0BDE835
:10067000F04F00F041BB0098012240000023D0EB76
:10068000020263EBE073009821464FEAE074B8EB96
:10069000000061EB0401E9E783F000435BE781F0D0
:1006A000004158E72DE9FE4F81EA030404F00044BD
:1006B00021F0004100944FF0000B23F0004350EA7A
:1006C00001045ED052EA03045BD0C3F30A54C1F3C1
:1006D0000A552C44A4F2F3340194A0FB0254C1F354
:1006E000130141F48011C3F3130343F4801301FB9E
:1006F000024400FB034E840A970A44EA815447EA05
:100700008357A4FB076802958D0A05FB07854FEA0E
:10071000932C04FB0C542705029D4FEA065847EA28
:100720001637B5EB08056EEB070C870E920E47EAFD
:10073000811742EA8312A7FB0201B6EB0B0164EBBF
:1007400000042B0D43EA0C335E1844EB1C50DA46D0
:100750005146E7FB0201C5F313044FEA0B3343EAAA
:1007600014534FEA0432019C43EA0603A4F10C043B
:100770000294009CCDE900B400F0CDFA03B0BDE8CE
:10078000F08F00200146F9E72DE9F04D81EA0304DE
:1007900004F0004B21F0004514464FF0000A23F00E
:1007A000004150EA050220D054EA01021DD0C5F3F1
:1007B0000A570246C5F31303C1F31300C1F30A56E7
:1007C00040F4801543F48013A7EB0608101BD646AF
:1007D00008F2FD3873EB050002D308F1010801E0CF
:1007E00092185B41B8F1000F03DA00200146BDE822
:1007F000F08D00204FF48011064684460EE0171B52
:1008000073EB050705D3121B63EB050306434CEAA4
:10081000010C49084FEA300092185B4150EA010789
:10082000EDD152EA030012D082EA040083EA050106
:10083000084305D0101BAB4106D20122002306E07D
:1008400000224FF0004302E06FF0010253101AEB58
:1008500006004CEB085110EB0A0041EB0B01BDE820
:10086000F04D00F049BAC1F30A52C1F3130140F24E
:10087000FF3341F480119A4202DA002001467047AA
:1008800040F233439A42A2F2334202DC524200F079
:100890003CB800F02BB8000030B5041E71F1000424
:1008A00004DB4FF00044404264EB0101141E73F17D
:1008B000000405DB1C464FF00043524263EB040387
:1008C000994208BF904230BD064C074D06E0E068F3
:1008D00040F0010394E8070098471034AC42F6D387
:1008E000FFF708FC1C2B00083C2B0008202A04DB27
:1008F000203A00FA02F1002070479140C2F1200333
:1009000020FA03F3194390407047202A04DB203A71
:1009100021FA02F00021704721FA02F3D040C2F11F
:1009200020029140084319467047202A06DBCB1766
:10093000203A41FA02F043EAE07306E041FA02F39A
:10094000D040C2F120029140084319467047C0B21E
:100950004FF4F05100F02EBA2DE9FF4F087883B024
:100960009946FF2805D0491C2D2804D000240020DA
:1009700008E000200BE00124F9E700EB800003EB26
:100980004000491C0B78FF2BF7D104B140420023F3
:100990000293147819461D462D2C01D02B2C04D11E
:1009A000521C2D2C13D000240294AA461478FF2C3C
:1009B0000FD00A25A3FB057801FB05814FF0000C41
:1009C00003FB0C11521CE3194AEB0101EEE7012471
:1009D000EAE7814453EA010002D019F5C87F06DA3C
:1009E00003980021C0E9001107B0BDE8F08F002591
:1009F000AE4E2F46DFF8B882184600F0EFF9CDE989
:100A00000001B9F1000002DAC9F1000400E0044677
:100A10000023A74A1AEB030B42EB045A12E0E0074B
:100A200007D02A46334638464146FFF73BFE074685
:100A300088462A46334610461946FFF733FE0546D8
:100A40000E466410002CEAD1DDE90001B9F1000F77
:100A50005A46534606DAFFF797FE3A464346FFF7F3
:100A600093FE05E0FFF71EFE3A464346FFF71AFEE7
:100A7000029A0AB181F00041039AC2E90001B3E78A
:100A80002DE9FF4F1F468DB0D7E901464FF0FF38E3
:100A90002E2045464FF000090B90B9696D1C0E9849
:100AA0008847396A824688470028F6D1BAF1FF3F65
:100AB0000AD024F4D064002E11DDBAF12B0F08D037
:100AC000BAF12D0F0BD102E0404611B08DE744F48E
:100AD0008064B9696D1C0E9888478246761E694607
:100AE000600501D52D2000E02B208DF8000001F1DC
:100AF000010B0DF1200809E0B9696D1C0E988847BB
:100B000082460F9844F40074761E0560002E02DDC4
:100B1000BAF1300FF0D00B998A453ED144F08004F1
:100B200006E00F99681CA9F1010944F400740860FB
:100B3000B9696D1C761E0E98884782463028F0D021
:100B40002BE00B998A4505D1200603D444F080049C
:100B5000761E18E0504601F04DFB08B30DF113016D
:100B6000761E44F400748B4508D2AAF130000BF8CD
:100B7000010B200607D5A9F1010003E0200602D4ED
:100B800009F101008146A00502D50F99681C086093
:100B9000B9696D1C0E9888478246002ED1DC53E05F
:100BA000002E51DDBAF1650F02D0BAF1450F4BD1DD
:100BB000A00549D5B9696D1C24F44074761E0E98C1
:100BC00088478246002E0CDD2B2804D0BAF12D0F69
:100BD00007D144F48074B9696D1C0E988847824629
:100BE000761EE00501D52D2100E02B2108F8011B20
:100BF000CDF82C8021E00DF12901761E44F400741B
:100C000088450CD2AAF1300010F0FF0088F80000EF
:100C100002D10B99884509D908F1010806E0E005E1
:100C200001D5244801E042F20F708146B9696D1C7C
:100C30000E98884782460F980560002E04DD5046C6
:100C400001F0D8FA0028D6D1F9690E988847FF201C
:100C50008BF8000088F800000020069007904B46B3
:100C60006A4608A906A8FFF777FEA00502D46FF030
:100C700001002AE714F0240F0AD0E00714D1DDE9BF
:100C800006123868031D3B600068C0E900120BE0E3
:100C9000DDE90601FFF762FB0146E00704D1386891
:100CA000021D3A600068016028460EE7000014400B
:100CB0000000F03FF1D8FFFF426842B1016811F82F
:100CC000013B23B1521EC0E90012184670470121B2
:100CD000C160881E704742685AB1C368016843B951
:100CE00083688B4205D0491E521CC0E900120020C7
:100CF00070474FF0FF30704710B5141E73F10004B9
:100D000008DA401C41F1000192185B411A4301D1FD
:100D100020F0010010BD2DE9F04D92469B4611B127
:100D2000B1FA81F202E0B0FA80F220329046FFF789
:100D3000DDFD04460F4640EA0A0041EA0B01534636
:100D40005A46084313D0114653EA010019D0C8F19E
:100D500040025046FFF7D9FD05460E46504659461B
:100D60004246FFF7C3FD084305D0012004E02046BA
:100D70003946BDE8F08D0020054346EAE0762C4375
:100D800037430A986305E40AA0EB08000022FD0A35
:100D900044EA47540A3002D500200146E9E701053C
:100DA00010196941DDE9084500196941BDE8F04DB8
:100DB000A2E700007F2801D9002208E0064A02EBE2
:100DC0005002C007127800D1120902F00F02012070
:100DD0009040084070470000DC2A00080EB540F241
:100DE000334202920022CDE900221346FFF793FF1F
:100DF00003B000BD00B585B00121082000F08CFCD7
:100E00000121480500F078FCC020ADF810001C203E
:100E10008DF8130003208DF8120004A90F4800F08C
:100E20005EFA0020ADF804004BF6FF70ADF8060046
:100E30000020ADF808004FF48060ADF80A00000112
:100E4000ADF80C00064800906946064800F036FBF5
:100E50000121044800F00DFB05B000BD000C01406D
:100E6000A0860100005400407CB501213A4800F002
:100E70000CFB3A4800F0A8FB08B900207CBD00221A
:100E80004621354800F094FB354800F09DFB08B939
:100E90000020F3E72021304800F093FB3048801C0D
:100EA00000F092FB08B90020E8E701212A4800F091
:100EB000F8FA0020009003E000BF0098401C00906A
:100EC000284900988842F7D30121234800F0DDFA31
:100ED000224800F079FB08B90020CFE70122462123
:100EE0001D4800F065FB1D48401C00F06DFB08B973
:100EF0000020C3E70121184800F09AFA17483F3054
:100F000000F062FB08B90020B8E7134800F04CFB82
:100F10008DF804000021104800F08AFA01210E48E3
:100F200000F0BFFA0D483F3000F04EFB08B900203A
:100F3000A4E7094800F038FB8DF805009DF805008E
:100F40009DF8041040EA01242046FFF7C2F9054647
:100F50000549FFF780F991E70054004001000300C4
:100F600082000700008D27009A99993F00BFFEE795
:100F700010B50C490C480068FFF716FA08D30B4867
:100F80000078FFF7A6F904460949FFF70DFA04D2E5
:100F90000221084800F039FA03E00221054800F078
:100FA00032FA10BD00000C42280000202C00002066
:100FB0000000B442000C014070B50F4802680F48B1
:100FC00001680F4800F050FB05462846FFF79FF9DF
:100FD000C4B2204600F01EFA0A492846FFF7E4F999
:100FE00004D20421084800F010FA03E00421064866
:100FF00000F009FA70BD0000280000206000002009
:101000003800002000002041000C014008B50121FB
:10101000082000F081FB0720ADF8000010208DF8BB
:10102000030002208DF802006946044800F057F9D9
:101030000721024800F0E7F908BD0000000C01405C
:101040002DE9F05F30480768304890F8008040464E
:10105000FFF73FF982463946FFF7C8F881464FF05F
:1010600080414846FFF796F90FD82948007830B1FB
:101070000121284800F0C7F90020254908702648BA
:10108000006826490860BDE8F09F25494846FFF7FB
:10109000B0F8044623492046FFF786F900D2214CD8
:1010A00021462148FFF7A5F883462049FFF7D3F8EA
:1010B0008246FFF72CF9054617480068174909686A
:1010C000461A42F21070864204D31348006813494E
:1010D00008600026AE420AD20D48007888B9012186
:1010E0000C4800F092F901200949087009E008480D
:1010F000007830B10121074800F085F9002004494B
:10110000087000BFBFE70000640000202C00002032
:101110005C000020000C014034000020580000203A
:10112000000040400000B44200401C460000C8429D
:1011300010B50121042000F0EFFA00F0BDF8022103
:10114000014800F062F910BD000801402DE9FE439E
:1011500006460F4600200190029000F0ADF80221F3
:101160004A4800F050F90020009003E000BF0098CA
:10117000401C0090464900988842F7D3022143481A
:1011800000F043F91E2001F0F4FB00F083F84CF26C
:10119000503504E0681E051E01D1BDE8FE83022122
:1011A0003A4800F027F90128F4D04CF2503503E01A
:1011B000681E051E00D1F0E70221344800F01AF93C
:1011C0000028F5D04CF2503503E0681E051E00D112
:1011D000E3E702212D4800F00DF90128F5D00024A5
:1011E00037E04FF0000830E04CF2503503E0681E65
:1011F000051E00D1D1E70221244800F0FBF80028A9
:10120000F5D0282001F0B5FB01A8005D4006000ED6
:1012100001A9085502211D4800F0ECF8012812D15F
:1012200001A8005D40F0010001A908554CF25035BD
:1012300003E0681E051E00D1AFE70221134800F04D
:10124000D9F80128F5D008F10108B8F1080FCBDB77
:10125000641C052CC5DB9DF804009DF805100844AE
:101260009DF8061008449DF807100844C0B29DF888
:101270000810884201D000208FE79DF804003870E4
:101280009DF806003070012087E70000000801404B
:101290004019010008B50220ADF8000048208DF883
:1012A000030003208DF802006946024800F017F899
:1012B00008BD00000008014008B50220ADF800009C
:1012C00010208DF8030003208DF8020069460248C3
:1012D00000F005F808BD00000008014070472DE946
:1012E000F0410246002500260020002300240027AC
:1012F00091F803C00CF00F0591F803C00CF0100C2E
:10130000BCF1000F03D091F802C04CEA050591F83A
:1013100000C0BCF1000F31D0146800202BE04FF06A
:10132000010C0CFA00F3B1F800C00CEA03069E426F
:1013300020D183004FF00F0C0CFA03F7BC4305FAE1
:1013400003FC4CEA040491F803C0BCF1280F06D159
:101350004FF0010C0CFA00FCC2F814C00AE091F83E
:1013600003C0BCF1480F05D14FF0010C0CFA00FC92
:10137000C2F810C0401C0828D1D31460B1F800C0D6
:10138000BCF1FF0F34DD546800202EE000F1080CA2
:101390004FF0010808FA0CF3B1F800C00CEA03069C
:1013A0009E4221D183004FF00F0C0CFA03F7BC438F
:1013B00005FA03FC4CEA040491F803C0BCF1280FC1
:1013C00005D100F1080C08FA0CF8C2F8148091F865
:1013D00003C0BCF1480F07D100F1080C4FF0010821
:1013E00008FA0CF8C2F81080401C0828CED35460CC
:1013F000BDE8F0810246002093680B400BB101204C
:1014000000E000207047416170470161704700BFF4
:10141000FEE7000010B50446642C00DD642404EBF4
:1014200084004100014800F0D0FB10BD002C0140B9
:1014300021B1028842F48062028004E002884FF603
:10144000FF331A400280704770B502460024002521
:1014500000230020958A138B1B0445EA030626F01F
:101460007F4404EA01068E4201D1012000E0002001
:1014700070BD21B1028842F00102028004E00288BE
:101480004FF6FE731A400280704721B1028842F481
:101490008072028004E002884FF6FF631A400280E7
:1014A000704721B1028842F40072028004E0028891
:1014B0004FF6FF531A400280704700002DE9F043B9
:1014C00085B004460D460026B1460427DFF8CC80DF
:1014D000A6884FF6C0700640684600F02DF9DDF88A
:1014E00008802F48B8FBF0F01FFA80F946EA090699
:1014F000A68020884FF6FE710840208000262949EA
:10150000286888420CD828684000B8FBF0F087B201
:10151000042F00DA04273E4309F10100208427E06C
:10152000E8884BF6FF71884206D1286800EB40003E
:10153000B8FBF0F087B209E0286800EBC00101EBCE
:101540000010B8FBF0F087B247F48047C7F30B00F8
:1015500008B947F0010747F4004006434FF496707E
:1015600009FB00F04FF47A7190FBF1F0401C2084ED
:10157000A683208840F00100208026884FF6F530B1
:101580000640A8886989084306432680A8892989D6
:101590000843208105B0BDE8F083000000127A0006
:1015A00040420F00A08601000146088AC0B2704781
:1015B00012B141F0010102E04FF6FE7319400182C1
:1015C000704701827047000070B5044642F2107502
:1015D00003E0681E051E00D170BD21460348FFF7D9
:1015E00033FF0028F5D00120F6E70000005400404A
:1015F00000BFFEE77047000070B5002100230F22F6
:10160000C47804B3154C246804F4E064C4F5E064C1
:10161000210AC1F10403CA40447804FA03F1847832
:101620001440214309010E4C0678A155047804F0BA
:101630001F050124AC4005786D11AD0005F1E025D2
:10164000C5F8004109E0047804F01F050124AC400E
:10165000044D0678761145F8264070BD0CED00E08B
:1016600000E400E080E100E02DE9FC5F04460F4665
:10167000904641463846FEF7B6FD0546D4E90501D9
:10168000FEF792FE09D2E1696069FEF783FE04D29B
:101690002946E068FEF755FDE06028462169FEF71F
:1016A000A2FD824625615146A068FEF7A2FD019089
:1016B000E1686068FEF79DFD834629462068FEF7D5
:1016C00098FD59460090FEF73CFD81460199FEF7D2
:1016D00038FD06463046A169FEF75CFE00D2A669D9
:1016E0003046E169FEF760FE00D2E6696661304689
:1016F000BDE8FC9F7047000029B1064AD269024349
:10170000044BDA6104E0034AD2698243014BDA6197
:10171000704700000010024029B1064A9269024356
:10172000044B9A6104E0034A92698243014B9A6137
:10173000704700000010024030B500210022002454
:1017400000232D4D6D6805F00C0121B1042905D051
:10175000082923D105E0294D056022E0274D0560C9
:101760001FE0254D6D6805F47012234D6D6805F47A
:101770008034022505EB92421CB9214D554305608A
:101780000BE01D4D6D6805F400351DB11C4D554332
:10179000056002E0194D5543056002E0174D0560F4
:1017A00000BF00BF144D6D6805F0F0010909154D2B
:1017B0006B5C0568DD4045600F4D6D6805F4E061C8
:1017C000090A104D6B5C4568DD4085600A4D6D6807
:1017D00005F46051C90A0B4D6B5C4568DD40C5607E
:1017E000054D6D6805F44041890B074D6B5CC5687C
:1017F000B5FBF3F5056130BD0010024000127A0020
:1018000000093D001400002024000020704710B59E
:1018100000F002F810BD00000CB50020019000900F
:101820003348006840F480303149086000BF3048D8
:10183000006800F4003000900198401C019000986E
:1018400018B90198B0F5A06FF1D12948006800F4EB
:10185000003010B10120009001E0002000900098BD
:10186000012843D12348006840F010002149086056
:101870000846006820F0030008600846006840F051
:10188000020008601A4840681949486008464068E4
:1018900048600846406840F48060486008464068F8
:1018A00020F47C1048600846406840F4E810486026
:1018B0000846006840F08070086000BF0C4800686F
:1018C00000F000700028F9D00948406820F00300BB
:1018D000074948600846406840F00200486000BF81
:1018E0000348406800F00C000828F9D10CBD000046
:1018F000001002400020024002480068401C0149DC
:10190000086070473400002010B51348006840F0AC
:1019100001001149086008464068104908400E4916
:101920004860084600680E4908400B4908600846B0
:10193000006820F4802008600846406820F4FE001B
:1019400048604FF41F008860FFF761FF4FF00060B0
:101950000449086010BD0000001002400000FFF8BC
:10196000FFFFF6FE08ED00E000B589B0012140F66A
:101970000400FFF7D1FE4FF48070ADF8200018206E
:101980008DF8230003208DF8220008A91A48FFF7DC
:10199000A6FC4720ADF8140040F2E730ADF818007F
:1019A0000020ADF81A00ADF816008DF81C0005A94E
:1019B000124800F00DF96020ADF804000120ADF8E8
:1019C00006000020ADF80A00ADF80C0001A90B4894
:1019D00000F0A6F80821094800F0EEF801210748B8
:1019E00000F059F80121054800F070F80121034882
:1019F00000F060F809B000BD00080140002C014073
:101A000010B50121880700F070F880B10121880726
:101A100000F04DF806480078401CC0B20449087038
:101A20003C2804DB0020087001200249087010BD2A
:101A30005E0000205D0000201FB501210846FFF771
:101A40005BFE41F61F40ADF8040042F20F70ADF8A6
:101A500008000020ADF80A00ADF8060001A94FF01B
:101A6000804000F0B5F801221146900700F04EF8D2
:101A70000121880700F01EF81C208DF800000020CE
:101A80008DF801008DF8020001208DF803006846F2
:101A9000FFF7B2FD1FBD21B1028842F08002028033
:101AA00004E002884FF67F731A4002807047CA43F1
:101AB0000282704721B1028842F00102028004E0F4
:101AC00002884FF6FE731A400280704731B1B0F8B9
:101AD000442042F40042A0F8442005E0B0F844203D
:101AE000C2F30E02A0F84420704730B50246002031
:101AF00000230024158A05EA0103958905EA0104FB
:101B000013B10CB1012000E0002030BD1AB183896F
:101B10000B43838102E083898B43838170470000FC
:101B200070B5002400220023058C4FF6FE76354068
:101B30000584028C8388048B4FF68F752C40B51E6C
:101B40002C400D882C43751E2A400D892A434D8850
:101B50002A43144DA8420BD0134DA84208D0134D70
:101B6000A84205D0124DA84202D0124DA84213D16E
:101B70004FF6F7752A404D892A434FF6FB752A40E8
:101B80008D882A434FF6FF652B404FF6FF552B40BB
:101B90008D892B43CD892B4383800483CD88858613
:101BA000028470BD002C014000340140004001401F
:101BB00000440140004801400A460021018B4FF6D5
:101BC000F773194011430183704781867047000005
:101BD000002202881D4B98420ED01D4B98420BD01C
:101BE000B0F1804F08D01B4B984205D01A4B984259
:101BF00002D01A4B984204D14FF68F731A404B888B
:101C00001A43174B984207D0164B984204D04FF610
:101C1000FF431A40CB881A4302808B8883850B8848
:101C200003850A4B98420BD0094B984208D00E4BC3
:101C3000984205D00D4B984202D00D4B984201D1ED
:101C40000B7A03860123838270470000002C014039
:101C5000003401400004004000080040000C004037
:101C600000100040001400400040014000440140CA
:101C70000048014000B587B0012144F20400FFF79D
:101C80004BFD4FF40070ADF8180018208DF81B00C4
:101C900003208DF81A0006A91D48FFF720FB4FF41A
:101CA0008060ADF8180004208DF81B0006A91848C4
:101CB000FFF715FB4FF4E13002900020ADF80C0067
:101CC000ADF80E00ADF81000ADF814000C20ADF822
:101CD000120002A90F4800F01FF9012240F225511D
:101CE0000C4800F0F4F825208DF8040001208DF850
:101CF000050000208DF8060001208DF8070001A8DE
:101D0000FFF77AFC0121034800F09EF807B000BD00
:101D100000080140003801402DE9F0411C4C092227
:101D20001CA12046FEF7FEF9A0B904F1090000F05D
:101D30000BFE0646FEF712FB054600212846FEF77D
:101D400033FB06D216492846FEF724FB01D215487C
:101D500005601AE00A2214A12046FEF7E3F9A0B9B3
:101D600004F10A0000F0F0FD0646FEF7F7FA05461A
:101D700000212846FEF718FB06D80E492846FEF734
:101D800009FB01D80C48056000BFBDE8F0810000E8
:101D900070000020434D443A686561742C000000D7
:101DA0000000A04260000020434D443A68756D6910
:101DB000642C00000000C8426400002010B50446F6
:101DC0000BE000BF8021074800F04AF80028F9D056
:101DD00014F8011B034800F010F920780028F0D116
:101DE00010BD00000038014010B540F225511248E6
:101DF00000F043F8F8B1104800F0FAF8C4B20A2C29
:101E00000BD100210D480E4A1278815400200C4954
:101E1000087001200B4908700CE00D2C0AD008480E
:101E200000783F2806DA06490878411C044A1170F8
:101E300002490C5400BF10BD003801407000002062
:101E4000680000206900002021B1828942F400521C
:101E5000828104E082894DF6FF731A4082817047C7
:101E600002460020B1F5007F00D100BF13880B406F
:101E70000BB1012000E00020704770B5024600243D
:101E800000230025002040F66A16B14200D100BFB1
:101E9000C1F3421501F01F03012606FA03F3012DD9
:101EA00002D19689334006E0022D02D1168A3340D2
:101EB00001E0968A33400C12012606FA04F41688D3
:101EC000344013B10CB1012000E0002070BDF0B52A
:101ED0000346002400260025002040F66A17B94278
:101EE00000D100BF1846C1F3421401F01F060127BC
:101EF00007FA06F5012C01D10C3004E0022C01D1C7
:101F0000103000E014301AB107682F43076002E078
:101F10000768AF430760F0BD2DE9F04786B005467E
:101F20000E460024A24600BFA1460027B08900B19A
:101F300000BF2F462C8A4CF6FF700440F088044303
:101F40002C82AC894EF6F3100440B08831890843E6
:101F5000718908430443AC81AC8A4FF6FF400440CA
:101F6000B0890443AC8201A8FFF7E6FB1F48874213
:101F700002D1DDF810A001E0DDF80CA0A88900F482
:101F8000004040B10AEBCA0000EB0A10316849007A
:101F9000B0FBF1F807E00AEBCA0000EB0A10316869
:101FA0008900B0FBF1F86420B8FBF0F004012009CF
:101FB000642101FB1089A88900F4004040B132205F
:101FC00000EBC900B0FBF1F000F00700044308E0AB
:101FD000322000EB09106421B0FBF1F000F00F009B
:101FE00004432C8106B0BDE8F087000000380140B2
:101FF00001468888C0F308007047C1F30802828058
:10200000704700BFFEE700000FB41CB50246002079
:1020100007AC00290BD0491ECDE90021054B6A46CB
:102020002146069800F0EEF8009A002111701CBCC1
:102030005DF814FB33290008014800687047000070
:102040006C00002002E008C8121F08C1002AFAD163
:1020500070477047002001E001C1121F002AFBD128
:102060007047000001490860704700006C000020C4
:102070002DE9FF5F82B00021DDE90430020DDDF8BB
:1020800040B0034318D044F61050A2F2FF3242434E
:102090001514119801281FD0A5EB0B00401C5FEA16
:1020A000000A4FF000064E4FDFF83891B046504618
:1020B00015D5CAF1000413E0119801244AA30128A0
:1020C00001D16FEA0B010298119AC0E90031C0E911
:1020D000024206B0BDE8F09FCBF10000DFE7044606
:1020E0000021404A491842EB0450CDE9001012E0AB
:1020F000E00707D032463B4640464946FEF7D2FA53
:102100008046894632463B4610461946FEF7CAFAD3
:1021100006460F466410002CEAD1DDE90401DDE932
:102120000023BAF1000F06DAFEF7BCFA42464B462E
:10213000FEF7B8FA05E0FEF727FB42464B46FEF7EE
:1021400023FB04460E460022284BFEF7A5FB03D8CE
:102150004FF0FF30014607E00022254B2046314674
:10216000FEF7F9F9FEF77FFB102409E0002C0ADBEB
:102170000A220023FEF738F9039B30321A55641EF9
:1021800050EA0102F2D1641C039AC4F11103144411
:10219000119A012A03D0012208430DD10AE0084315
:1021A00004D000204FF0110B119072E7A3EB0B0548
:1021B0006D1E0DE05B4504DD4FF0000205F10105E9
:1021C00004E003DA4FF00002A5F10105002AECD08B
:1021D00002981199C0E90231C0E9004579E7000091
:1021E000000014400000F03F300000000000F04309
:1021F0000000E03F30380A2801D20120704700205B
:10220000704700002DE9FF4F95B09B468946064672
:1022100000250FE2252877D100242746F84A01211E
:10222000059400E0044316F8013F203B01FA03F057
:102230001042F7D130782A2811D06FF02F03307870
:10224000A0F13002092A16D8059A44F0020402EBE4
:10225000820203EB42021044761C0590EFE759F826
:10226000042B0592002A03DA504244F400540590EE
:1022700044F00204761C30782E2816D116F8010F8F
:1022800044F004042A280DD06FF02F023078A0F11A
:102290003003092B09D807EB870302EB4303C71868
:1022A000761CF3E759F8047B761C30786C280FD045
:1022B00006DC4C2817D068280DD06A2814D104E019
:1022C000742810D07A280FD10DE044F400140AE0ED
:1022D00044F4801401E044F440147278824202D144
:1022E00004F58014761C761C307866280BD013DC3D
:1022F000582877D009DC002875D04528F6D0462824
:10230000F4D047281AD19DE118E0632835D064281D
:1023100079D0652812D195E1702873D008DC672840
:10232000F1D069286FD06E280DD06F2806D1B5E0A6
:1023300073282CD0752875D0782874D05A461799F0
:1023400090476D1C75E1C4F30250022809D00328A0
:102350000DD0D9F8001004280DD00D6009F1040942
:1023600067E1D9F80010EA17C1E90052F6E7D9F899
:1023700000100D80F2E70D70F0E719F8041B8DF8DE
:10238000001000208DF80100EA46012003E059F812
:1023900004AB4FF0FF3061074FF0000102D40DE0B5
:1023A00008F101018846B9420FDA8045F8DB1AF8D6
:1023B00008100029F4D108E008F1010188468142A3
:1023C000FADB1AF808100029F6D105985B46A0EB55
:1023D000080721463846179A00F094FA284400EB83
:1023E000080507E04DE029E10DE01AF8010B5A4617
:1023F00017999047B8F10108F7D25B462146384655
:10240000179A13E142E00A220092C4F302524FF0FD
:10241000000A022A08D059F804CB032A4FEAEC71CB
:102420000AD00DE029E02AE009F1070121F00702B6
:10243000F2E802C1914609E00FFA8CFC4FEAEC7118
:10244000042A03D14FFA8CFC4FEAEC71002907DA19
:102450000A460021DCF1000C61EB02012D2202E0B2
:10246000220504D52B228DF80420012203E0E20787
:1024700001D02022F7E7904659E00A2102E010221D
:102480000DE010214FF0000A00910BE010224FF0F8
:10249000000A44F004040827009203E008224FF0E9
:1024A000000A0092C4F30252022A05D059F804CB64
:1024B0000021032A08D009E009F1070121F00702F1
:1024C000F2E802C1914605E01FFA8CFC042A01D112
:1024D0000CF0FF0C4FF00008220728D5702806D01A
:1024E000009B83F0100353EA0A0305D00EE040225C
:1024F0008DF80420012208E05CEA010206D03022B7
:102500008DF804208DF8050002229046009B83F090
:10251000080353EA0A030AD15CEA010201D1620707
:1025200005D530228DF804204FF001087F1E582871
:1025300004D034A003900EA802900DE036A0F9E775
:1025400053466046009AFDF74FFF84460398825C2D
:102550000298401E029002705CEA0100F0D10298DD
:1025600006A9081A00F1200A600702D524F4803475
:1025700000E00127574502DDA7EB0A0000E000203C
:1025800000EB0A01009005984144401A0590E003D1
:1025900006D45B462146179A059800F0B3F9054426
:1025A000002706E001A85A46C05D179990476D1CA8
:1025B0007F1C4745F6DBE0030CD55B462146179AA6
:1025C000059800F09FF9054404E030205A46179919
:1025D00090476D1C0099481E00900029F5DC08E02A
:1025E000029802995A460078491C0291179990471F
:1025F0006D1CBAF10001AAF1010AF1DC65E10000ED
:1026000009280100303132333435363738396162C8
:10261000636465660000000030313233343536378C
:1026200038394142434445460000000000F058F963
:102630000544761C307800287FF4ECAD19B02846AC
:10264000BDE8F08F620700D4062709F1070222F0E7
:10265000070CFCE80223E14603F000485FEA080C9F
:1026600002D00FF2702C0DE05FEA045C02D50FF28D
:10267000682C07E05FEAC47C02D00FF2602C01E016
:10268000AFF2700C4FF0FF3823F00043CDF850C08C
:1026900065280CD006DC452809D046281DD04728DF
:1026A0003DD13DE0662818D067287ED138E0002172
:1026B000112F01DB112000E0781CCDE9000106A9F3
:1026C0000EA8FFF7D5FCDDE90F010E9A039100215A
:1026D000009207F1010A04914DE04FF0004000978D
:1026E000CDE9011006A90EA8FFF7C2FCDDE90F0233
:1026F00003920E9B11990022DDF80CA00093049226
:1027000011B9791C00EB010AB7EB0A0004D4C0F13F
:10271000FF3007F1010A0490AAEB0700019044E0A2
:10272000012F00DA01270021112F01DD112000E027
:102730003846CDE9000106A90EA8FFF799FCDDE9AE
:102740000F010E9A0391002104910092BA462107CD
:102750000CD40399514500DA8A46BAF1010F05DD20
:10276000009AAAF10101515C302908D0B84202DA7E
:1027700010F1040F06DA0121CDE9011015E0AAF1EC
:102780000101E9E7002805DC049901440491AAEB62
:10279000000102E0411C514500DD8A460499401ABF
:1027A000401C01904FF000400290200704D4019893
:1027B000504501DBCDF8048000208DF84F000298D1
:1027C0000DF14F07B0F1004F25D02B200E9002984D
:1027D0004FF0020800280CDA404202902D200E90A3
:1027E00007E00A210298FDF7E9FD3031029007F871
:1027F000011DB8F10001A8F10108F2DC02980028DF
:10280000EFD1791E0E980870307800F0200040F06B
:10281000450007F8020D12A8C01B00F10708149824
:10282000007800B1012000EB0A01019801EBE07192
:1028300005984144401A401E0590E00306D45B46CB
:102840002146179A059800F05DF805441498007821
:1028500018B15A46179990476D1CE00324D55B4682
:102860002146179A059800F04DF805441CE004989D
:10287000002807DBDDE90301884203DD0098405CA6
:10288000179901E0179930205A469047049805F1AE
:102890000105401C04900198401E019004D12E2097
:1028A0005A46179990476D1CBAF10001AAF1010A26
:1028B000DDDC05E017F8010B5A46179990476D1CAF
:1028C000B8F10001A8F10108F4DC5B462146179A33
:1028D0000598ABE62D0000002B0000002000000052
:1028E0002DE9F041044600251E461746880404D40D
:1028F00005E039462020B0476D1C641EF9D52846F6
:10290000BDE8F0812DE9F041044600251E469046C1
:10291000C80301D5302700E02027880404D505E04E
:1029200041463846B0476D1C641EF9D52846BDE8BF
:10293000F0814A68002A06D00A68531C0B601070A8
:102940004868401E4860704730B583B00446FFF7C2
:1029500073FB05460020CDE900000246214668468B
:10296000FDF78FFD2846FFF77DFBDDE9000103B091
:1029700030BD00EBC00000E000BF011EA0F101006F
:10298000FAD1704796B00020059004904548006841
:102990004FF47A72B0FBF2F1B1F1807F00D31DE009
:1029A00021F07F40401E4FF0E022506150170F226F
:1029B000002807DA13071D0E3B4B00F00F04241FFD
:1029C0001D5503E013071C0E384B1C5400BF00209C
:1029D0004FF0E02290610720106100BFFFF74AF935
:1029E000FEF708FAFEF7A4FBFFF726F8FEF7BCFF98
:1029F000FEF70CFB002003900DE00020029003E0A6
:102A000000BF0298401C0290294902988842F7D3DF
:102A10000398401C03900398B0F5FA6FEDD33FE0A4
:102A20002448007880B300202249087004A905A832
:102A3000FEF78CFB48B19DF81400FDF74AFC1E49D7
:102A400008609DF810001D490870FEF70DFA1C493A
:102A5000086008460068FDF76EFC04460D461648FF
:102A60000068FDF73BFC06461448CDE902450078B6
:102A7000334614A24021009006A8FFF7C5FA06A825
:102A8000FFF79CF9FEF798FA1348007820B1002070
:102A900011490870FFF740F9FEF7D2FAFEF768FA1D
:102AA000BEE700000000002018ED00E000E400E0B8
:102AB000401901005D000020280000202C000020AB
:102AC0003000002053454E534F523A25642C256464
:102AD0002C252E31660A000069000020DDDDDDDDD9
:102AE000DCBBBBDDDDDDDDDDDDDDDDDD988888889F
:102AF0008888888877777777778888888555555646
:102B0000666666666666666666688888833333329C
:102B100022222222222222222228888D3C2B0008D7
:102B2000000000207000000044200008AC2B0008CA
:102B300070000020400400005420000800A24A0455
:102B4000000000000000000001020304060708095D
:102B50000000000001020304010203040607080943
:102B60000204060800000000000000000000000051
:102B7000000000000000003F8FC2F53C713D8A3E1E
:102B80000000000000000000000000000000000045
:102B90000000C84200000000000100000000C84121
:0C2BA00000007042000000000000000077
:04000005080000ED02
:00000001FF
